{
  "_format": "hh3-artifact-1",
  "contractName": "InvoiceManager",
  "sourceName": "src/app/contracts/InvoiceManager.sol",
  "abi": [
    {
      "inputs": [
        {
          "internalType": "uint256",
          "name": "_feePercentage",
          "type": "uint256"
        },
        {
          "internalType": "uint256",
          "name": "_feeThreshold",
          "type": "uint256"
        },
        {
          "internalType": "address",
          "name": "_feeRecipient",
          "type": "address"
        }
      ],
      "stateMutability": "nonpayable",
      "type": "constructor"
    },
    {
      "anonymous": false,
      "inputs": [
        {
          "indexed": false,
          "internalType": "string",
          "name": "invoiceId",
          "type": "string"
        },
        {
          "indexed": false,
          "internalType": "address",
          "name": "issuer",
          "type": "address"
        },
        {
          "indexed": false,
          "internalType": "address",
          "name": "payer",
          "type": "address"
        },
        {
          "indexed": false,
          "internalType": "address",
          "name": "token",
          "type": "address"
        },
        {
          "indexed": false,
          "internalType": "uint256",
          "name": "amount",
          "type": "uint256"
        }
      ],
      "name": "InvoiceCreated",
      "type": "event"
    },
    {
      "anonymous": false,
      "inputs": [
        {
          "indexed": false,
          "internalType": "string",
          "name": "invoiceId",
          "type": "string"
        },
        {
          "indexed": false,
          "internalType": "address",
          "name": "payer",
          "type": "address"
        },
        {
          "indexed": false,
          "internalType": "uint256",
          "name": "fee",
          "type": "uint256"
        }
      ],
      "name": "InvoicePaid",
      "type": "event"
    },
    {
      "inputs": [
        {
          "internalType": "string",
          "name": "invoiceId",
          "type": "string"
        },
        {
          "internalType": "address",
          "name": "payer",
          "type": "address"
        },
        {
          "internalType": "address",
          "name": "token",
          "type": "address"
        },
        {
          "internalType": "uint256",
          "name": "amount",
          "type": "uint256"
        }
      ],
      "name": "createInvoice",
      "outputs": [],
      "stateMutability": "nonpayable",
      "type": "function"
    },
    {
      "inputs": [],
      "name": "feePercentage",
      "outputs": [
        {
          "internalType": "uint256",
          "name": "",
          "type": "uint256"
        }
      ],
      "stateMutability": "view",
      "type": "function"
    },
    {
      "inputs": [],
      "name": "feeRecipient",
      "outputs": [
        {
          "internalType": "address",
          "name": "",
          "type": "address"
        }
      ],
      "stateMutability": "view",
      "type": "function"
    },
    {
      "inputs": [],
      "name": "feeThreshold",
      "outputs": [
        {
          "internalType": "uint256",
          "name": "",
          "type": "uint256"
        }
      ],
      "stateMutability": "view",
      "type": "function"
    },
    {
      "inputs": [
        {
          "internalType": "string",
          "name": "",
          "type": "string"
        }
      ],
      "name": "invoices",
      "outputs": [
        {
          "internalType": "address",
          "name": "issuer",
          "type": "address"
        },
        {
          "internalType": "address",
          "name": "payer",
          "type": "address"
        },
        {
          "internalType": "address",
          "name": "token",
          "type": "address"
        },
        {
          "internalType": "uint256",
          "name": "amount",
          "type": "uint256"
        },
        {
          "internalType": "bool",
          "name": "paid",
          "type": "bool"
        }
      ],
      "stateMutability": "view",
      "type": "function"
    },
    {
      "inputs": [
        {
          "internalType": "string",
          "name": "invoiceId",
          "type": "string"
        }
      ],
      "name": "payInvoice",
      "outputs": [],
      "stateMutability": "payable",
      "type": "function"
    },
    {
      "inputs": [
        {
          "internalType": "uint256",
          "name": "_feePercentage",
          "type": "uint256"
        },
        {
          "internalType": "uint256",
          "name": "_feeThreshold",
          "type": "uint256"
        },
        {
          "internalType": "address",
          "name": "_feeRecipient",
          "type": "address"
        }
      ],
      "name": "updateFee",
      "outputs": [],
      "stateMutability": "nonpayable",
      "type": "function"
    }
  ],
  "bytecode": "0x608060405234801561000f575f5ffd5b506040516115f83803806115f883398181016040528101906100319190610117565b825f81905550816001819055508060025f6101000a81548173ffffffffffffffffffffffffffffffffffffffff021916908373ffffffffffffffffffffffffffffffffffffffff160217905550505050610167565b5f5ffd5b5f819050919050565b61009c8161008a565b81146100a6575f5ffd5b50565b5f815190506100b781610093565b92915050565b5f73ffffffffffffffffffffffffffffffffffffffff82169050919050565b5f6100e6826100bd565b9050919050565b6100f6816100dc565b8114610100575f5ffd5b50565b5f81519050610111816100ed565b92915050565b5f5f5f6060848603121561012e5761012d610086565b5b5f61013b868287016100a9565b935050602061014c868287016100a9565b925050604061015d86828701610103565b9150509250925092565b611484806101745f395ff3fe60806040526004361061006f575f3560e01c8063875ae9901161004d578063875ae990146100e1578063a001ecdd14610109578063cb4e162b14610133578063cf4b8ac81461015d5761006f565b8063391bbc8814610073578063469048401461009b5780637c9495b2146100c5575b5f5ffd5b34801561007e575f5ffd5b5061009960048036038101906100949190610cd8565b61019d565b005b3480156100a6575f5ffd5b506100af610414565b6040516100bc9190610d67565b60405180910390f35b6100df60048036038101906100da9190610d80565b610439565b005b3480156100ec575f5ffd5b5061010760048036038101906101029190610dc7565b61095f565b005b348015610114575f5ffd5b5061011d610a40565b60405161012a9190610e26565b60405180910390f35b34801561013e575f5ffd5b50610147610a45565b6040516101549190610e26565b60405180910390f35b348015610168575f5ffd5b50610183600480360381019061017e9190610d80565b610a4b565b604051610194959493929190610e59565b60405180910390f35b5f73ffffffffffffffffffffffffffffffffffffffff166003856040516101c49190610efc565b90815260200160405180910390205f015f9054906101000a900473ffffffffffffffffffffffffffffffffffffffff1673ffffffffffffffffffffffffffffffffffffffff161461024a576040517f08c379a000000000000000000000000000000000000000000000000000000000815260040161024190610f6c565b60405180910390fd5b6040518060a001604052803373ffffffffffffffffffffffffffffffffffffffff1681526020018473ffffffffffffffffffffffffffffffffffffffff1681526020018373ffffffffffffffffffffffffffffffffffffffff1681526020018281526020015f15158152506003856040516102c59190610efc565b90815260200160405180910390205f820151815f015f6101000a81548173ffffffffffffffffffffffffffffffffffffffff021916908373ffffffffffffffffffffffffffffffffffffffff1602179055506020820151816001015f6101000a81548173ffffffffffffffffffffffffffffffffffffffff021916908373ffffffffffffffffffffffffffffffffffffffff1602179055506040820151816002015f6101000a81548173ffffffffffffffffffffffffffffffffffffffff021916908373ffffffffffffffffffffffffffffffffffffffff160217905550606082015181600301556080820151816004015f6101000a81548160ff0219169083151502179055509050507f2e8918fa1b79f8357faa633b76372f986296cdf76172fd702a33ca1c5a67a9ab8433858585604051610406959493929190610fc2565b60405180910390a150505050565b60025f9054906101000a900473ffffffffffffffffffffffffffffffffffffffff1681565b5f60038260405161044a9190610efc565b90815260200160405180910390209050806004015f9054906101000a900460ff16156104ab576040517f08c379a00000000000000000000000000000000000000000000000000000000081526004016104a290611064565b60405180910390fd5b806001015f9054906101000a900473ffffffffffffffffffffffffffffffffffffffff1673ffffffffffffffffffffffffffffffffffffffff163373ffffffffffffffffffffffffffffffffffffffff161461053c576040517f08c379a0000000000000000000000000000000000000000000000000000000008152600401610533906110cc565b60405180910390fd5b5f5f905060015482600301541061056e576127105f5483600301546105619190611117565b61056b9190611185565b90505b5f81836003015461057f91906111b5565b90505f73ffffffffffffffffffffffffffffffffffffffff16836002015f9054906101000a900473ffffffffffffffffffffffffffffffffffffffff1673ffffffffffffffffffffffffffffffffffffffff16036106f757826003015434101561061e576040517f08c379a000000000000000000000000000000000000000000000000000000000815260040161061590611232565b60405180910390fd5b5f82111561068c5760025f9054906101000a900473ffffffffffffffffffffffffffffffffffffffff1673ffffffffffffffffffffffffffffffffffffffff166108fc8390811502906040515f60405180830381858888f1935050505015801561068a573d5f5f3e3d5ffd5b505b825f015f9054906101000a900473ffffffffffffffffffffffffffffffffffffffff1673ffffffffffffffffffffffffffffffffffffffff166108fc8290811502906040515f60405180830381858888f193505050501580156106f1573d5f5f3e3d5ffd5b50610902565b826002015f9054906101000a900473ffffffffffffffffffffffffffffffffffffffff1673ffffffffffffffffffffffffffffffffffffffff166323b872dd33855f015f9054906101000a900473ffffffffffffffffffffffffffffffffffffffff16846040518463ffffffff1660e01b815260040161077993929190611250565b6020604051808303815f875af1158015610795573d5f5f3e3d5ffd5b505050506040513d601f19601f820116820180604052508101906107b991906112af565b6107f8576040517f08c379a00000000000000000000000000000000000000000000000000000000081526004016107ef90611324565b60405180910390fd5b5f82111561090157826002015f9054906101000a900473ffffffffffffffffffffffffffffffffffffffff1673ffffffffffffffffffffffffffffffffffffffff166323b872dd3360025f9054906101000a900473ffffffffffffffffffffffffffffffffffffffff16856040518463ffffffff1660e01b815260040161088193929190611250565b6020604051808303815f875af115801561089d573d5f5f3e3d5ffd5b505050506040513d601f19601f820116820180604052508101906108c191906112af565b610900576040517f08c379a00000000000000000000000000000000000000000000000000000000081526004016108f79061138c565b60405180910390fd5b5b5b6001836004015f6101000a81548160ff0219169083151502179055507f2b0496bd845cdc90060f9d96383229a2e3c1dd51eb8b6b7be1fa524ea4d3cd65843384604051610951939291906113aa565b60405180910390a150505050565b60025f9054906101000a900473ffffffffffffffffffffffffffffffffffffffff1673ffffffffffffffffffffffffffffffffffffffff163373ffffffffffffffffffffffffffffffffffffffff16146109ee576040517f08c379a00000000000000000000000000000000000000000000000000000000081526004016109e590611430565b60405180910390fd5b825f81905550816001819055508060025f6101000a81548173ffffffffffffffffffffffffffffffffffffffff021916908373ffffffffffffffffffffffffffffffffffffffff160217905550505050565b5f5481565b60015481565b6003818051602081018201805184825260208301602085012081835280955050505050505f91509050805f015f9054906101000a900473ffffffffffffffffffffffffffffffffffffffff1690806001015f9054906101000a900473ffffffffffffffffffffffffffffffffffffffff1690806002015f9054906101000a900473ffffffffffffffffffffffffffffffffffffffff1690806003015490806004015f9054906101000a900460ff16905085565b5f604051905090565b5f5ffd5b5f5ffd5b5f5ffd5b5f5ffd5b5f601f19601f8301169050919050565b7f4e487b71000000000000000000000000000000000000000000000000000000005f52604160045260245ffd5b610b5d82610b17565b810181811067ffffffffffffffff82111715610b7c57610b7b610b27565b5b80604052505050565b5f610b8e610afe565b9050610b9a8282610b54565b919050565b5f67ffffffffffffffff821115610bb957610bb8610b27565b5b610bc282610b17565b9050602081019050919050565b828183375f83830152505050565b5f610bef610bea84610b9f565b610b85565b905082815260208101848484011115610c0b57610c0a610b13565b5b610c16848285610bcf565b509392505050565b5f82601f830112610c3257610c31610b0f565b5b8135610c42848260208601610bdd565b91505092915050565b5f73ffffffffffffffffffffffffffffffffffffffff82169050919050565b5f610c7482610c4b565b9050919050565b610c8481610c6a565b8114610c8e575f5ffd5b50565b5f81359050610c9f81610c7b565b92915050565b5f819050919050565b610cb781610ca5565b8114610cc1575f5ffd5b50565b5f81359050610cd281610cae565b92915050565b5f5f5f5f60808587031215610cf057610cef610b07565b5b5f85013567ffffffffffffffff811115610d0d57610d0c610b0b565b5b610d1987828801610c1e565b9450506020610d2a87828801610c91565b9350506040610d3b87828801610c91565b9250506060610d4c87828801610cc4565b91505092959194509250565b610d6181610c6a565b82525050565b5f602082019050610d7a5f830184610d58565b92915050565b5f60208284031215610d9557610d94610b07565b5b5f82013567ffffffffffffffff811115610db257610db1610b0b565b5b610dbe84828501610c1e565b91505092915050565b5f5f5f60608486031215610dde57610ddd610b07565b5b5f610deb86828701610cc4565b9350506020610dfc86828701610cc4565b9250506040610e0d86828701610c91565b9150509250925092565b610e2081610ca5565b82525050565b5f602082019050610e395f830184610e17565b92915050565b5f8115159050919050565b610e5381610e3f565b82525050565b5f60a082019050610e6c5f830188610d58565b610e796020830187610d58565b610e866040830186610d58565b610e936060830185610e17565b610ea06080830184610e4a565b9695505050505050565b5f81519050919050565b5f81905092915050565b8281835e5f83830152505050565b5f610ed682610eaa565b610ee08185610eb4565b9350610ef0818560208601610ebe565b80840191505092915050565b5f610f078284610ecc565b915081905092915050565b5f82825260208201905092915050565b7f496e766f696365206578697374730000000000000000000000000000000000005f82015250565b5f610f56600e83610f12565b9150610f6182610f22565b602082019050919050565b5f6020820190508181035f830152610f8381610f4a565b9050919050565b5f610f9482610eaa565b610f9e8185610f12565b9350610fae818560208601610ebe565b610fb781610b17565b840191505092915050565b5f60a0820190508181035f830152610fda8188610f8a565b9050610fe96020830187610d58565b610ff66040830186610d58565b6110036060830185610d58565b6110106080830184610e17565b9695505050505050565b7f496e766f69636520616c726561647920706169640000000000000000000000005f82015250565b5f61104e601483610f12565b91506110598261101a565b602082019050919050565b5f6020820190508181035f83015261107b81611042565b9050919050565b7f4e6f7420746865207061796572000000000000000000000000000000000000005f82015250565b5f6110b6600d83610f12565b91506110c182611082565b602082019050919050565b5f6020820190508181035f8301526110e3816110aa565b9050919050565b7f4e487b71000000000000000000000000000000000000000000000000000000005f52601160045260245ffd5b5f61112182610ca5565b915061112c83610ca5565b925082820261113a81610ca5565b91508282048414831517611151576111506110ea565b5b5092915050565b7f4e487b71000000000000000000000000000000000000000000000000000000005f52601260045260245ffd5b5f61118f82610ca5565b915061119a83610ca5565b9250826111aa576111a9611158565b5b828204905092915050565b5f6111bf82610ca5565b91506111ca83610ca5565b92508282039050818111156111e2576111e16110ea565b5b92915050565b7f496e73756666696369656e742043454c4f0000000000000000000000000000005f82015250565b5f61121c601183610f12565b9150611227826111e8565b602082019050919050565b5f6020820190508181035f83015261124981611210565b9050919050565b5f6060820190506112635f830186610d58565b6112706020830185610d58565b61127d6040830184610e17565b949350505050565b61128e81610e3f565b8114611298575f5ffd5b50565b5f815190506112a981611285565b92915050565b5f602082840312156112c4576112c3610b07565b5b5f6112d18482850161129b565b91505092915050565b7f4552433230207472616e73666572206661696c656400000000000000000000005f82015250565b5f61130e601583610f12565b9150611319826112da565b602082019050919050565b5f6020820190508181035f83015261133b81611302565b9050919050565b7f455243323020666565206661696c6564000000000000000000000000000000005f82015250565b5f611376601083610f12565b915061138182611342565b602082019050919050565b5f6020820190508181035f8301526113a38161136a565b9050919050565b5f6060820190508181035f8301526113c28186610f8a565b90506113d16020830185610d58565b6113de6040830184610e17565b949350505050565b7f4f6e6c7920666565526563697069656e742063616e20757064617465000000005f82015250565b5f61141a601c83610f12565b9150611425826113e6565b602082019050919050565b5f6020820190508181035f8301526114478161140e565b905091905056fea264697066735822122087b3b4914949da688d7c7e2cc1c6add63b67d0cc899708256099227c5c88108b64736f6c634300081c0033",
  "linkReferences": {},
  "deployedLinkReferences": {},
  "immutableReferences": {},
  "inputSourceName": "project/src/app/contracts/InvoiceManager.sol",
  "buildInfoId": "solc-0_8_28-df6ff322682736d577693144d3ed9e018f068207"
}